:020000040000fa
:080000000002040000000000f2
:020000040000fa
:04000800640300008d
:020000040000fa
:04000c006403000089
:020000040000fa
:040010006403000085
:020000040000fa
:040014006403000081
:020000040000fa
:04001800640300007d
:020000040000fa
:04001c006403000079
:020000040000fa
:040020006403000075
:020000040000fa
:040024006403000071
:020000040000fa
:04002800640300006d
:020000040000fa
:04002c006403000069
:020000040000fa
:040030006403000065
:020000040000fa
:0400340004030000c1
:020000040000fa
:04003800640300005d
:020000040000fa
:04003c006403000059
:020000040000fa
:040040006403000055
:020000040000fa
:040044006403000051
:020000040000fa
:04004800640300004d
:020000040000fa
:04004c006403000049
:020000040000fa
:040050006403000045
:020000040000fa
:040054006403000041
:020000040000fa
:04005800640300003d
:020000040000fa
:04005c006403000039
:020000040000fa
:040060006403000035
:020000040000fa
:040064006403000031
:020000040000fa
:04006800640300002d
:020000040000fa
:04006c006403000029
:020000040000fa
:040070006403000025
:020000040000fa
:04007400380300004d
:020000040000fa
:04007800640300001d
:020000040000fa
:04007c006403000019
:020000040000fa
:040080006403000015
:020000040000fa
:040084006403000011
:020000040000fa
:04008800640300000d
:020000040000fa
:04008c006403000009
:020000040000fa
:040090006403000005
:020000040000fa
:040094006403000001
:020000040000fa
:0400980064030000fd
:020000040000fa
:04009c0064030000f9
:020000040000fa
:0400a00064030000f5
:020000040000fa
:0400a40064030000f1
:020000040000fa
:0400a80064030000ed
:020000040000fa
:0400ac0064030000e9
:020000040000fa
:0400b00064030000e5
:020000040000fa
:0400b40064030000e1
:020000040000fa
:0400b80064030000dd
:020000040000fa
:0400bc0064030000d9
:020000040000fa
:0400c00064030000d5
:020000040000fa
:0400c40064030000d1
:020000040000fa
:0400c80064030000cd
:020000040000fa
:0400cc0064030000c9
:020000040000fa
:0400d00064030000c5
:020000040000fa
:0400d40064030000c1
:020000040000fa
:0400d80064030000bd
:020000040000fa
:0400dc0064030000b9
:020000040000fa
:0400e00064030000b5
:020000040000fa
:0400e40064030000b1
:020000040000fa
:0400e80064030000ad
:020000040000fa
:0400ec0064030000a9
:020000040000fa
:0400f00064030000a5
:020000040000fa
:0400f40064030000a1
:020000040000fa
:0400f800640300009d
:020000040000fa
:0400fc006403000099
:020000040000fa
:040100006403000094
:020000040000fa
:040104006403000090
:020000040000fa
:04010800640300008c
:020000040000fa
:04010c006403000088
:020000040000fa
:040110006403000084
:020000040000fa
:040114006403000080
:020000040000fa
:04011800640300007c
:020000040000fa
:04011c006403000078
:020000040000fa
:040120006403000074
:020000040000fa
:040124006403000070
:020000040000fa
:04012800640300006c
:020000040000fa
:04012c006403000068
:020000040000fa
:040130006403000064
:020000040000fa
:040134006403000060
:020000040000fa
:04013800640300005c
:020000040000fa
:04013c006403000058
:020000040000fa
:040140006403000054
:020000040000fa
:040144006403000050
:020000040000fa
:04014800640300004c
:020000040000fa
:04014c006403000048
:020000040000fa
:040150006403000044
:020000040000fa
:040154006403000040
:020000040000fa
:04015800640300003c
:020000040000fa
:04015c006403000038
:020000040000fa
:040160006403000034
:020000040000fa
:040164006403000030
:020000040000fa
:04016800640300002c
:020000040000fa
:04016c006403000028
:020000040000fa
:040170006403000024
:020000040000fa
:040174006403000020
:020000040000fa
:04017800640300001c
:020000040000fa
:04017c006403000018
:020000040000fa
:040180006403000014
:020000040000fa
:040184006403000010
:020000040000fa
:04018800640300000c
:020000040000fa
:04018c006403000008
:020000040000fa
:040190006403000004
:020000040000fa
:040194006403000000
:020000040000fa
:0401980064030000fc
:020000040000fa
:04019c0064030000f8
:020000040000fa
:0401a00064030000f4
:020000040000fa
:0401a40064030000f0
:020000040000fa
:0401a80064030000ec
:020000040000fa
:0401ac0064030000e8
:020000040000fa
:0401b00064030000e4
:020000040000fa
:0401b40064030000e0
:020000040000fa
:0401b80064030000dc
:020000040000fa
:0401bc0064030000d8
:020000040000fa
:0401c00064030000d4
:020000040000fa
:0401c40064030000d0
:020000040000fa
:0401c80064030000cc
:020000040000fa
:0401cc0064030000c8
:020000040000fa
:0401d00064030000c4
:020000040000fa
:0401d40064030000c0
:020000040000fa
:0401d80064030000bc
:020000040000fa
:0401dc0064030000b8
:020000040000fa
:0401e00064030000b4
:020000040000fa
:0401e40064030000b0
:020000040000fa
:0401e80064030000ac
:020000040000fa
:0401ec0064030000a8
:020000040000fa
:0401f00064030000a4
:020000040000fa
:0401f40064030000a0
:020000040000fa
:0401f800640300009c
:020000040000fa
:0401fc006403000098
:020000040000fa
:04020800640300008b
:020000040000fa
:04020c006403000087
:020000040000fa
:040210006403000083
:020000040000fa
:04021400640300007f
:020000040000fa
:04021800640300007b
:020000040000fa
:04021c006403000077
:020000040000fa
:040220006403000073
:020000040000fa
:04022400640300006f
:020000040000fa
:04022800640300006b
:020000040000fa
:04022c006403000067
:020000040000fa
:040230006403000063
:020000040000fa
:0402340004030000bf
:020000040000fa
:04023800640300005b
:020000040000fa
:04023c006403000057
:020000040000fa
:040240006403000053
:020000040000fa
:04024400640300004f
:020000040000fa
:04024800640300004b
:020000040000fa
:04024c006403000047
:020000040000fa
:040250006403000043
:020000040000fa
:04025400640300003f
:020000040000fa
:04025800640300003b
:020000040000fa
:04025c006403000037
:020000040000fa
:040260006403000033
:020000040000fa
:04026400640300002f
:020000040000fa
:04026800640300002b
:020000040000fa
:04026c006403000027
:020000040000fa
:040270006403000023
:020000040000fa
:04027400380300004b
:020000040000fa
:04027800640300001b
:020000040000fa
:04027c006403000017
:020000040000fa
:040280006403000013
:020000040000fa
:04028400640300000f
:020000040000fa
:04028800640300000b
:020000040000fa
:04028c006403000007
:020000040000fa
:040290006403000003
:020000040000fa
:0402940064030000ff
:020000040000fa
:0402980064030000fb
:020000040000fa
:04029c0064030000f7
:020000040000fa
:0402a00064030000f3
:020000040000fa
:0402a40064030000ef
:020000040000fa
:0402a80064030000eb
:020000040000fa
:0402ac0064030000e7
:020000040000fa
:0402b00064030000e3
:020000040000fa
:0402b40064030000df
:020000040000fa
:0402b80064030000db
:020000040000fa
:0402bc0064030000d7
:020000040000fa
:0402c00064030000d3
:020000040000fa
:0402c40064030000cf
:020000040000fa
:0402c80064030000cb
:020000040000fa
:0402cc0064030000c7
:020000040000fa
:0402d00064030000c3
:020000040000fa
:0402d40064030000bf
:020000040000fa
:0402d80064030000bb
:020000040000fa
:0402dc0064030000b7
:020000040000fa
:0402e00064030000b3
:020000040000fa
:0402e40064030000af
:020000040000fa
:0402e80064030000ab
:020000040000fa
:0402ec0064030000a7
:020000040000fa
:0402f00064030000a3
:020000040000fa
:0402f400640300009f
:020000040000fa
:0402f800640300009b
:020000040000fa
:0402fc006403000097
:020000040000fa
:040300006403000092
:020000040000fa
:04030400640300008e
:020000040000fa
:04030800640300008a
:020000040000fa
:04030c006403000086
:020000040000fa
:040310006403000082
:020000040000fa
:04031400640300007e
:020000040000fa
:04031800640300007a
:020000040000fa
:04031c006403000076
:020000040000fa
:040320006403000072
:020000040000fa
:04032400640300006e
:020000040000fa
:04032800640300006a
:020000040000fa
:04032c006403000066
:020000040000fa
:040330006403000062
:020000040000fa
:04033400640300005e
:020000040000fa
:04033800640300005a
:020000040000fa
:04033c006403000056
:020000040000fa
:040340006403000052
:020000040000fa
:04034400640300004e
:020000040000fa
:04034800640300004a
:020000040000fa
:04034c006403000046
:020000040000fa
:040350006403000042
:020000040000fa
:04035400640300003e
:020000040000fa
:04035800640300003a
:020000040000fa
:04035c006403000036
:020000040000fa
:040360006403000032
:020000040000fa
:04036400640300002e
:020000040000fa
:04036800640300002a
:020000040000fa
:04036c006403000026
:020000040000fa
:040370006403000022
:020000040000fa
:04037400640300001e
:020000040000fa
:04037800640300001a
:020000040000fa
:04037c006403000016
:020000040000fa
:040380006403000012
:020000040000fa
:04038400640300000e
:020000040000fa
:04038800640300000a
:020000040000fa
:04038c006403000006
:020000040000fa
:040390006403000002
:020000040000fa
:0403940064030000fe
:020000040000fa
:0403980064030000fa
:020000040000fa
:04039c0064030000f6
:020000040000fa
:0403a00064030000f2
:020000040000fa
:0403a40064030000ee
:020000040000fa
:0403a80064030000ea
:020000040000fa
:0403ac0064030000e6
:020000040000fa
:0403b00064030000e2
:020000040000fa
:0403b40064030000de
:020000040000fa
:0403b80064030000da
:020000040000fa
:0403bc0064030000d6
:020000040000fa
:0403c00064030000d2
:020000040000fa
:0403c40064030000ce
:020000040000fa
:0403c80064030000ca
:020000040000fa
:0403cc0064030000c6
:020000040000fa
:0403d00064030000c2
:020000040000fa
:0403d40064030000be
:020000040000fa
:0403d80064030000ba
:020000040000fa
:0403dc0064030000b6
:020000040000fa
:0403e00064030000b2
:020000040000fa
:0403e40064030000ae
:020000040000fa
:0403e80064030000aa
:020000040000fa
:0403ec0064030000a6
:020000040000fa
:0403f00064030000a2
:020000040000fa
:0403f400640300009e
:020000040000fa
:0403f800640300009a
:020000040000fa
:0403fc006403000096
:020000040000fa
:100400002f8020000e7f22000e01880000000000d7
:10041000000020000000e000020032000001200087
:100420002002880014000700a90007000000e00077
:1004300003003a00206a200001002000020037007b
:100440000000200001002000810f70000100320038
:1004500014000700000020000000e000020032004d
:100460000000020000000000a005020000000000e3
:100470000040da000000fe004440a9000003200014
:100480000000e000030032000020200090018800fe
:100490004440a800000006008a1f78008b1f7800e7
:1004a00000000600a1028800800478000000eb0034
:1004b0001f003700e284440054a0b4009905ba003c
:1004c000e284440054a0b4009906ba00e2844400d7
:1004d00054a0b4000006eb00476fde00fd07b20039
:1004e000ae018800636ce10003003a00eaff0700f8
:1004f0000000eb000e003700606ce10008003a00dd
:10050000004deb000a05e800020039003420ec0041
:100510000af0a0008b05e900f9ff3e000400370057
:100520006168e100010032000086eb000b0007006b
:1005300019c7ba001905ba000e04e00003003a001a
:100540000a00e000dbff3a0000000600fe07b200f0
:10055000ae0288008a047800f5ff37000cd0a300b3
:10056000e20f4d001c00390089027800354dba00b9
:100570000a05e800020039003420ec000af0a0006f
:100580008b05e9000f003200254dba000a05e8008e
:10059000020039003420ec000af0a0008b05e900cd
:1005a000080032000c00e0000600320015cdba0051
:1005b0000a05e800020039003420ec000af0a0002f
:1005c0008b05e9008984e80054a0b4000b00e0002a
:1005d000e2ff3a00000006009902ba00055d7800cb
:1005e0008b05e900f7ff3200c82ade00055d7800c0
:1005f0008b05e900f3ff32000c00e000f1ff320050
:1006000019ddba00eeff3700809fbe003200f8000f
:100610003400f80010002000a00188000020200015
:10062000900188000000fa00200c80004a00de00e3
:100630006140600000c0ea00614060000080fb0093
:10064000610060004a00dd00210c800001a0a100d3
:1006500001007000200c88008460a9000080fa006e
:100660003400f9003200f9004f00be0000400600df
:10067000809fbe003200f8003400f8001000200017
:10068000a001880000202000900188000000fa00ee
:10069000610c800000102000008060000000e0007d
:1006a00003003a0010c0b30000e8b70064c0a9001e
:1006b0008660a9000080fa003400f9003200f900d9
:1006c0004f00be00004006000040da000000fe00bf
:0406d0000000050021
:020000040000fa
:1006d400504900004332000034200000426f000003
:1006e4006172000064200000763200002e330000a6
:1006f4004b650000796200006f61000072640000c5
:10070400202000002d2d00003e20000020200000ad
:100714003031000032330000343500003637000039
:1007240038390000414200004344000045460000bf
:020000040000fa
:100734002200fa00e2004700a23628001f00090048
:10074400b258780080c0b300810007000000eb00bd
:10075400000f7800010037001e0fe800f0e72300c7
:100764009e007800808f5000fbff3600c0c3b300aa
:10077400770007000000eb00000f7800010037004d
:100784001e0fe800f0e723009e007800808f5000e1
:10079400fbff3600c0c3b3006d0007000000eb0090
:1007a400000f7800010037001e0fe800f0e7230077
:1007b4009e007800808f5000fbff3600c0c3b3005a
:1007c400630007000000eb00000f78000100370011
:1007d4001e0fe800f0e723009e007800808f500091
:1007e400fbff3600c0c3b300590007000000eb0054
:1007f400000f7800010037001e0fe800f0e7230027
:100804009e007800808f5000fbff3600c0c2b3000a
:100814004f0007000000eb00000f780001003700d4
:100824001e0fe800f0e723009e007800808f500040
:10083400fbff360080c2b300370007000000eb0066
:10084400000f7800010037001e0fe800f0e72300d6
:100854009e007800808f5000fbff3600e0c0b3009c
:100864002d0007000000eb00000f780001003700a6
:100874001e0fe800f0e723009e007800808f5000f0
:10088400fbff360010c0b300230007000000eb009c
:10089400000f7800010037001e0fe800f0e7230086
:1008a4009e007800808f5000fbff36000000eb00b4
:1008b400000f7800050037000e80e8001e0040009d
:1008c400104078001b0007001e0fe8001e0078008f
:1008d400ef0f5000f8ff360000ccb3000e00070005
:1008e4000000eb00000f7800060037009e0078003f
:1008f4007080400000004700204090000d00070079
:100904001e0fe8001e007800ef0f5000f7ff3600be
:100914000080fa00000006000200fa00004f780090
:10092400c1c0b3001e407800160007000080fa0022
:10093400000006000200fa00004f7800d1c0b300a6
:100944001e4078000f0007000080fa000000060037
:100954000200fa00004f780029000700e00420009c
:10096400420007001e80fb00400007001e24a10077
:100974001e80fb003d0007002a0007000080fa00eb
:10098400000006000400fa00204798003147980050
:100994001b000700e004200034000700ae40900074
:1009a400014f780000cfb3001e4f60003e4090001e
:1009b4001e4f70001e80fb002c0007001e24a100a7
:1009c4001e80fb0029000700ae409000400020007c
:1009d4000008dd00004f78003e4090001e4f70007c
:1009e4001e80fb00210007001e24a1001e80fb00c6
:1009f4001e0007000b0007000080fa00000006003c
:100a04000000fa00f002a800000000008017800037
:100a1400610060000000e000fcff3a000080fa0082
:100a2400000006000000fa00f042a80000000000e8
:100a340080178000640060000000e000fcff3a00c2
:100a44000080fa00000006000000fa00f022a8006e
:100a54000000000080178000620060000000e000d9
:100a6400fcff3a000080fa00000006000200fa00d1
:100a7400000f78009e0078006117880000000000d5
:100a8400a0178000610060000000e000fcff3a0055
:100a940000000000a1178000000024000080600016
:100aa4000000e000fbff3a00a01780000080ea008d
:100ab4004f00de00004078000080fa0000000600cd
:100ac4000000fa00f062a800000000008017800017
:100ad400680060000000e000fcff3a00501780004e
:100ae400004078000080fa00000006000000fa00d0
:100af400f0a2a900f082a800000000008017800086
:100b0400700060000000e000fcff3a000080fa0082
:100b1400000006000000fa00f0a2a800f082a8007d
:100b24000000000080178000700060000000e000fa
:100b3400fcff3a000080fa00000006000200fa0000
:100b44005b000700630007006e00070076000700e3
:100b5400f7fe0700511f800000fc2f00008060009a
:100b64000030a000501f8800a11d800000fc2f0051
:100b7400008060000030a000a01d880000e3a900f0
:100b840000a3a80000c3a8000163a9000143a800b2
:100b94000043a9000123a9008118800000002e0051
:100ba40080806000301f20000100700080188800e1
:100bb4000103a9000083a9000063a90008c3a900d8
:100bc40001e3a80003003700000000000100370023
:100bd4000000000000c8bf000004e000faff32007b
:100be4000068ef000b000700004f78001e407800fb
:100bf400f04f5000f6ff3200f0ccb30046ff070080
:100c04001e80fb00a13828006140780049ff0700de
:100c1400f0ff37000600fa0000c1b3004047980017
:100c24000c23ef0000000000401880006100600009
:100c34000000e000fcff320040188000610060000a
:100c44000000e000020032006118800011079800e3
:100c54001e0090000080ea008180ea0010079800de
:100c64000000eb00000f7800090037001e00780038
:100c74009e0090008008dd0000002800808f500056
:100c840002003a001e007800404798001e0fe8005a
:100c94001e007800ef0f5000f4ff36008660a900b4
:100ca40064c0a8004e4090000080fa0000000600d6
:100cb4000000fa009881a8008521a9008541a900b7
:100cc4009481a9008121a9008141a9000080fa0032
:100cd400000006000000fa005082a80050a2a800fc
:100ce4005022a9004c22ef0010f42000701288005a
:100cf4008460a9009460a80051e2a8000080fa0072
:100d0400000006000000fa009241a9009261a900c7
:100d14007002200070178800f142a900f1e2a800d7
:100d24000080fa00000006000000fa0064c0a80079
:100d34008660a9009660a8000080fa000000060002
:020000040000fa
:100d44000008000002000000800000000000000015
:020000040000fa
:020000040002f8
:04affc003f3f0000d3
:00000001FF
